:020000040800F2
:10000000D0AB002045010008E1320008F71B0008D2
:10001000DD3200081D0A00086158000800000000D9
:10002000000000000000000000000000E34A00089B
:10003000D911000800000000B3010008293F0008A2
:100040005F0100085F0100085F0100085F01000810
:100050005F0100085F0100085F0100085F01000800
:100060005F0100085F0100085F0100085F010008F0
:100070005F0100085F0100085F0100085F010008E0
:100080005F0100085F0100085F0100085F010008D0
:100090003D5800085F0100085F0100085F0100088B
:1000A0005F0100085F0100085F0100085F010008B0
:1000B000C94C00085D4D0008F14D00085F010008C3
:1000C0005F0100085F0100085F0100085F01000890
:1000D0005F01000865540008C9540008595500081C
:1000E0005F0100085F0100085F0100085F01000870
:1000F0005F0100085F0100085F0100085F01000860
:100100005F0100085F0100085F0100085F0100084F
:100110007D530008115400085F0100085F010008CA
:100120005F0100085F0100085F0100085F0100082F
:10013000DFF80CD000F0C6FB004800479D6F0008B8
:10014000D0AB00200648804706480047FEE7FEE7A0
:10015000FEE7FEE7FEE7FEE7FEE7FEE7FEE7FEE777
:100160009D47000831010008EFF3108072B6704718
:1001700080F3108870471F484FF0FF010170002086
:1001800080F309881C48016881F308881B48012115
:1001900001701B484FF08051016062B6FEE71848BD
:1001A0004FF080510160704715484FF08051016059
:1001B000704772B6EFF3098028B1203880E8F00F5D
:1001C00010490968086000B50F4880475DF804EBE6
:1001D0000E480F490A7802700A480E490A68026000
:1001E000106890E8F00F203080F309884EF0040E7C
:1001F00062B6704722ED00E0C4040020EE04002047
:1002000004ED00E0F4040020553D0008E304002064
:10021000E4040020FC040020A0F14101192900D8C9
:100220002030704740EA01039B0703D009E008C96A
:10023000121F08C0042AFAD203E011F8013B00F8AB
:10024000013B521EF9D27047D2B201E000F8012BF7
:10025000491EFBD270470022F6E710B513460A4646
:1002600004461946FFF7F0FF204610BDCAB2401EF3
:1002700010F8011F8A4202D00029F9D100207047EE
:10028000421C10F8011B0029FBD1801A704710B5E1
:10029000002200E0521C835C8C5CA34201D1002B45
:1002A000F8D1D8B2E1B2401A10BD034611F8012BC3
:1002B00000F8012B002AF9D11846704730B50546E1
:1002C0000020034600E05B1C934205D2EC5CC85C56
:1002D000201A01D1002CF6D130BD2DE9FE4F804609
:1002E00081EA0300C00F0C46009021F0004123F08A
:1002F0000045B8EB0200A94105D240462146904690
:100300001C460B46024623F00040104304D14046F1
:10031000214603B0BDE8F08F270DC7F30A00C3F3F1
:100320000A510290401A0190402866DAC3F3130084
:1003300040F4801B0098924620B10023D2EB030AC0
:1003400063EB0B0B01985946C0F14002504600F098
:100350008AF906460D4650465946019A00F0A2F920
:1003600010EB08006141002487EA115284EAE77328
:100370001A433BD0009A3AB3019A012A4FEA075236
:1003800010DC001B61EB02014FF0004202EA075251
:10039000CDE90042001C41F5801132462B4600F0A9
:1003A000A0F9B6E7001B61EB0201001C41F58013C8
:1003B00000185B412018A2F5001747EB030140EA43
:1003C000D570B6196D4111E06D084FEA360645EA61
:1003D000C0754FEA0752001B61EB0201001C41F59A
:1003E000801149084FEA30000019514132462B462E
:1003F00003B0BDE8F04F00F067B90098012240005B
:100400000023D0EB020263EBE073009821464FEA31
:10041000E074B8EB000061EB0401E9E783F000430E
:100420005BE781F0004158E72DE9FE4F81EA0304C4
:1004300004F0004421F0004100944FF0000B23F041
:10044000004350EA010402D052EA030404D1002020
:10045000014603B0BDE8F08FC3F30A54C1F30A5557
:100460002C44A4F2F3340194A0FB0254C1F3130111
:1004700041F48011C3F3130343F4801301FB0244DE
:1004800000FB034E840A970A44EA815447EA8357E3
:10049000A4FB076802958D0A05FB07854FEA932C9C
:1004A00004FB0C542705029D4FEA065847EA16370D
:1004B000B5EB08056EEB070C870E920E47EA811725
:1004C00042EA8312A7FB0201B6EB0B0164EB0004C6
:1004D0002B0D43EA0C335E1844EB1C50DA465146B0
:1004E000E7FB0201C5F313044FEA0B3343EA14534D
:1004F0004FEA0432019C43EA0603A4F10C0402947F
:10050000009CCDE900B400F0ECF8A2E70EB5C10FF5
:1005100080EAE0700844CA07002140F233438DE8C6
:100520000E000A460B4600F0DCF803B000BD0EB525
:1005300040F2334102910021CDE900110A460B46F9
:1005400000F0CFF803B000BD70B5C1F30A5201F05E
:1005500000450024C1F3130140F2FF3341F4801140
:100560009A4201DA002070BD40F233439A42A2F26F
:10057000334203DC524200F085F800E090402C4307
:10058000F1D0404270BD000030B5002904DB4FF0CF
:100590000044404264EB0101002B04DB4FF00044B7
:1005A000524264EB03038B4208BF824230BD00001D
:1005B00030B5002904DB4FF00044404264EB0101F8
:1005C000002B04DB4FF00044524264EB03039942DA
:1005D00008BF904230BD000030B50B4601460020F8
:1005E0002022012409E021FA02F59D4205D303FAF5
:1005F00002F5491B04FA02F52844151EA2F1010276
:10060000F1DC30BD2DE9F05F0546002092469B46A7
:1006100088460646814640241BE028464146474618
:10062000224600F02FF853465A46C01A914110D383
:1006300011461846224600F016F82D1A67EB0108FD
:100640004F4622460120002100F00DF817EB00096B
:100650004E41201EA4F10104DFDC484631462A4603
:100660004346BDE8F09F202A04DB203A00FA02F15D
:10067000002070479140C2F1200320FA03F3194390
:1006800090407047202A04DB203A21FA02F0002132
:10069000704721FA02F3D040C2F120029140084392
:1006A00019467047202A06DBCB17203A41FA02F0A0
:1006B00043EAE07306E041FA02F3D040C2F12002BF
:1006C000914008431946704710B5002B08DA401CCA
:1006D00041F1000192185B411A4301D120F0010061
:1006E00010BD2DE9F04D92469B4611B1B1FA81F251
:1006F00002E0B0FA80F220329046FFF7B4FF0446E1
:100700000F4640EA0A0041EA0B0153465A460843A5
:1007100003D120463946BDE8F08D114653EA010069
:1007200015D0C8F140025046FFF7ACFF05460E4613
:10073000504659464246FFF796FF084301D0012034
:1007400000E00020054346EAE0762C4337430A9850
:100750004FEA4453A0EB08004FEAD4240A304FF08C
:10076000000244EA47544FEAD72502D5002001464B
:10077000D1E7010510196941DDE908450019694112
:10078000BDE8F04DA0E72DE9F04D81EA030404F047
:10079000004B21F0004514464FF0000A23F00041C1
:1007A00050EA050220D054EA01021DD0C5F30A57D1
:1007B0000246C5F31303C1F31300C1F30A5640F414
:1007C000801543F48013A7EB0608101BD64608F2E9
:1007D000FD3873EB050002D308F1010801E092181F
:1007E0005B41B8F1000F03DA00200146BDE8F08D4F
:1007F00000204FF48011064684460EE0171B73EB71
:10080000050705D3121B63EB050306434CEA010CF5
:1008100049084FEA300092185B4150EA0107EDD1D8
:1008200052EA030012D082EA040083EA0501084379
:1008300003D100224FF0004308E0101BAB4102D26D
:100840000122002302E06FF0010253101AEB0600B0
:100850004CEB085110EB0A0041EB0B01BDE8F04DE9
:10086000FFF732BF70B521F0004303430CD0C1F352
:100870000A550024D5EB040564EB0403D617AD1A22
:10088000B34102DB0020014670BD201841EB02514C
:1008900070BDC1F30A52C1F3130140F2FF3341F4BA
:1008A00080119A4202DA00200146704740F2334339
:1008B0009A42A2F2334202DC5242FFF7E3BEFFF754
:1008C000D2BE0000064C074D06E0E06840F0010390
:1008D00094E8070098471034AC42F6D3FFF72CFC9D
:1008E000409C0008609C00082DE9F04D00231A464A
:1008F0001B1A8A4103DB00200146BDE8F08DC1F3DD
:100900000A52C1F3130141F480154FF0000BD107D7
:1009100002D100186D41521E0027044640F2FF111B
:10092000384601EB620A3E468046024600204FF4FC
:100930008011FFF7A7FEC2197141BB1846EB0100F9
:10094000B4EB030C75EB000C04D3E41A65EB000563
:1009500017460E46241908F101006D4180463428DF
:10096000E3DDF91946EB0600091BA84103D24FF05D
:10097000FF32134601E0002213461BEB070046EB53
:100980000A51BDE8F04DFFF79FBE70B501EB0204C0
:1009900010F8015B15F0070301D110F8013B2A1193
:1009A00006D110F8012B03E010F8016B01F8016B80
:1009B0005B1EF9D12B0705D40023521E0FD401F87A
:1009C000013BFAE710F8013B02F10202A1EB03033D
:1009D00003E013F8015B01F8015B521EF9D5A14257
:1009E000D6D3002070BD0146302905DB392903DC50
:1009F000A1F13002D0B210E0412905DB462903DC29
:100A0000A1F13702D0B208E0612905DB662903DCD9
:100A1000A1F15702D0B200E0FF20704700BFFEE70F
:100A200010B50446A07A801C0E49A1F814030E48A4
:100A300090F86C100B4880F816132088010A0948BA
:100A400080F81713217880F81813A27A04F10B01AB
:100A500000F21930FFF7E6FB0120024981F812038A
:100A600010BD00005C060020640000202DE9F0416C
:100A700086B00746884615460024019700208DF869
:100A80000C008DF80D008DF80E5000BF06E018F830
:100A900004100DF10F000155601CC4B2AC42F6DB2E
:100AA00001A9064800F01BFA042801D1002600E045
:100AB0000126304606B0BDE8F08100000064004029
:100AC000B1F5007F3AD00FDC202928D006DC0129BF
:100AD0001CD004291DD0082940D11DE0402921D077
:100AE000B1F5807F3AD126E0B1F5004F31D006DC78
:100AF000B1F5806F25D0B1F5006F2FD124E0B1F5AD
:100B0000803F12D0B1F5003F28D111E0154A826034
:100B100025E00822C26022E01022C2601FE0082205
:100B200002611CE01022026119E00822426016E016
:100B30001022426013E00422426010E0042242606E
:100B40000DE0042242600AE0002282610422426039
:100B500005E0002282610422426000E000BF00BF85
:100B6000704700000101010010B504460B488442A3
:100B700009D10121480603F0E1FD00214FF000708A
:100B800003F0DCFD08E00121880603F0D7FD002119
:100B90004FF0806003F0D2FD10BD00000064004003
:100BA00010B50021837A012202FA03F13D4A12684E
:100BB00042F001023B4B1A603A4A1C3212688A43E7
:100BC000384B1C331A60027BCAB9364A0C321268A1
:100BD0008A43344B0C331A604288C38842EA034389
:100BE000304A4032847A42F834300288838842EABC
:100BF00003432C4A4032847A02EBC4025360027BE6
:100C0000012A19D1274A0C3212680A43254B0C33AA
:100C10001A604288038842EA0343224A4032847AB7
:100C200042F83430C288838842EA03431D4A403286
:100C3000847A02EBC4025360C27A3AB9194A121D8F
:100C400012688A43174B1B1D1A6006E0154A121DD5
:100C500012680A43134B1B1D1A60028932B9114AEC
:100C6000143212688A430F4B14331A600289012A26
:100C700006D10C4A143212680A430A4B14331A6024
:100C8000427B012A06D1074A1C3212680A43054BEF
:100C90001C331A60034A126822F00102014B1A60E9
:100CA00010BD0000006600401AB143690B43436168
:100CB00002E043698B434361704730B50246002030
:100CC0000023146824F002041460146844F0010442
:100CD000146000E05B1C546814F0010F03D1A3F50D
:100CE0007F44FF3CF6D1546814F0010F01D100207D
:100CF0006CE08C79012C04D1146844F080041460F9
:100D000003E0146824F080041460CC79012C04D131
:100D1000146844F04004146003E0146824F04004B4
:100D200014600C7A012C04D1146844F0200414607F
:100D300003E0146824F0200414604C7A012C04D1E0
:100D4000146844F01004146003E0146824F01004E4
:100D500014608C7A012C04D1146844F008041460E7
:100D600003E0146824F008041460CC7A012C04D148
:100D7000146844F00404146003E0146824F00404CC
:100D800014608C78A407CD7844EA05640D7944EAB0
:100D900005444D7944EA05540D886D1E2C43D461F9
:100DA000146824F001041460002300E05B1C546804
:100DB00014F0010F03D0A3F57F44FF3CF6D1546833
:100DC00014F0010F01D0002000E0012030BD10B56B
:100DD00000F5D87303EB01131B6803F004031372CF
:100DE000137A53B900F5D87303EB01131B6840F273
:100DF000FF7404EA5353136009E000F5D87303EB62
:100E000001131B686FF0604404EAD303536000F5DC
:100E1000D87303EB01131B6803F00203537200F550
:100E2000D87303EB01135B6803F00F03937200F5B3
:100E3000D87303EB01135B681B0AD37400F5D873F6
:100E400003EB01139B68D37200F5D87303EB011316
:100E50009B681C0A147300F5D87303EB01139B689D
:100E60001C0C547300F5D87303EB01139B681B0E25
:100E7000937300F5D87303EB0113DB68D37300F5AC
:100E8000D87303EB0113DB681C0A147400F5D873E4
:100E900003EB0113DB681C0C547400F5D87303EBEF
:100EA0000113DB681B0E937421B9C36843F0200360
:100EB000C36003E0036943F02003036110BD002118
:100EC0008171C171017241728172C1728170C17090
:100ED000032101710221417101210180704710B588
:100EE00002460020936803F08063B3F1806F00D165
:100EF00010E0936803F00063B3F1006F01D10120AB
:100F000008E0936803F08053B3F1805F01D10220C1
:100F100000E00420042874D002F5C07303EB001332
:100F20001B6803F0010402F5C07303EB00131C609F
:100F30000B7A7BB94B7A0C8843EA445302F5C074B0
:100F400004EB00142468234302F5C07404EB00147E
:100F5000236010E00B7A4C6843EAC4034C7A2343C5
:100F600002F5C07404EB00142468234302F5C07436
:100F700004EB001423608B7A03F00F038B7202F5ED
:100F8000C07303EB00135B6823F00F0402F5C0731A
:100F900003EB00135C6002F5C07303EB00135B68A6
:100FA0008C7A234302F5C07404EB001463608B7BDE
:100FB0001C064B7B44EA03440B7B44EA0323CC7AB4
:100FC000234302F5C07404EB0014A3608B7C1C0661
:100FD0004B7C44EA03440B7C44EA0323CC7B23434D
:100FE00002F5C07404EB0014E36002F5C07303EB78
:100FF00000131B6843F0010402F5C07303EB0013F8
:101000001C6010BD10B503F0DFFD00214FF0006043
:1010100002F0ACF94FF4806002F09EF903F04EFC50
:1010200000F0B0F900F008FA00F000FC00F0A0F9C0
:1010300004F09CFD00F08EFC10BD000070B504466D
:1010400004EB440000EBC4015E4810F8110000F00E
:101050008000802823D15C4800EB042104EB44008D
:1010600000EBC402574810F8120000F00F000D18F2
:10107000564830F81400401C04EB440101EBC40254
:10108000504911F8121001F00F01401A04EB44010D
:1010900001EBC4114E4A02EB410148800EE04A4880
:1010A00000EB0425494830F81400401C04EB4401CF
:1010B00001EBC411464A02EB4101488004EB4400B5
:1010C00000EBC4013F4810F8110000F080008028B8
:1010D0001BD104EB440000EBC4103D4901EB400080
:1010E000418804EB440000EBC402364800EB4200A8
:1010F000807A00F00F00081A04EB440101EBC411E0
:10110000334A02EB4101488027E004EB440000EB46
:10111000C4012C4800EB4100007D012811D104EBF3
:10112000440000EBC4102A4901EB40004088801EB7
:1011300004EB440101EBC411254A02EB4101488054
:101140000BE0224830F81400401C04EB440101EB92
:10115000C4111F4A02EB4101488000201D4921F8BB
:101160001400C4EBC400174916390844807904EB15
:10117000440101EBC411164A02EB4101087104EB72
:10118000440101EBC411134603EB41014A8804EB0F
:10119000440101EBC41103EB4101481D2946FFF74F
:1011A00041F8094901EB04204FF48071FFF753F82F
:1011B000012004EB440101EBC411054A02F81100BF
:1011C00070BD00007A000020EC590020920400203D
:1011D0005C0600208C0400207047000010B5044617
:1011E00004EB84004FF6FF7101EA400008490880D3
:1011F00009E007480088C82190FBF1F201FB1200CA
:1012000008B900F013FD024800880028F1D110BD94
:101210008404002000B589B00121480603F07EFA5D
:101220000121212003F09AFA0120ADF82000482086
:101230008DF8230003208DF8220008A9484800F00B
:10124000FCFB0220ADF8200018208DF823000320BD
:101250008DF8220008A9424800F0EFFB01214FF46D
:10126000EB1000F073FC3F48FFF77EFC05A8FFF78A
:1012700026FE00208DF81A0001208DF81B000020AA
:101280008DF81C008DF81D008DF81E008DF81F00D4
:101290008DF816003448C06D0E280FD900208DF847
:1012A00017003248807D8DF818003048C07D8DF8D9
:1012B00019002E48808AADF814001EE000208DF839
:1012C00017002948C06D00EB4000284901EB4000A1
:1012D00000798DF818002448C06D00EB400001EB48
:1012E000400040798DF819001F48C06D00EB4000A8
:1012F00001EB40004088ADF8140005A91948FFF73C
:10130000DCFC00208DF80E008DF80F0001208DF818
:1013100010000020ADF80400ADF80600ADF808009C
:10132000ADF80A00ADF80C0001208DF8110001A8FD
:10133000FFF736FC012202210A48FFF7B5FC142012
:101340008DF8000000208DF8010001208DF80200CA
:101350008DF80300684601F0C5FF09B000BD00002C
:10136000001401400064004064000020FC99000863
:1013700010B50348806D012801D1FFF74BFF10BD68
:101380006400002008B50121202003F0E7F94FF4A4
:101390008070ADF8000010208DF8030002208DF859
:1013A000020069460D4800F048FB4FF480710B487D
:1013B00000F01DFC4FF40070ADF8000010208DF817
:1013C000030002208DF802006946044800F035FB56
:1013D0004FF40071014800F00AFC08BD0014014000
:1013E00000B585B00121080303F0B8F90020ADF87D
:1013F0000C00ADF800004FF48270ADF80200002040
:10140000ADF80400ADF80600ADF808004FF4007028
:10141000ADF80A000020ADF80E000720ADF810006E
:101420006946044803F012FB0121024803F0F8FA70
:1014300005B000BD0030014010B503F0F5FB03F02E
:1014400055FC03F09FFC10BD00B587B00121C80416
:1014500003F064F90121102003F080F918208DF8C1
:101460001B004FF48060ADF8180003208DF81A00BF
:1014700006A9444800F0E1FA48208DF81B004FF41B
:101480000060ADF8180006A93E4800F0D6FA3E48C4
:10149000007C012805D13C48407C10B10020009020
:1014A00015E03948007C28B93748407C10B9002045
:1014B00000900CE03448007C28B93348407C10B1DF
:1014C0000120009003E000212F48017441742E4850
:1014D000C07B2E4951F8200002902D489DF8001045
:1014E00030F81100ADF80C002748807C294931F80C
:1014F0001000ADF80E002448407C274931F8100058
:10150000ADF810000C20ADF8120002A9234804F039
:10151000CDF8012240F22551204804F0A2F840F213
:1015200026611E4804F058F834208DF8040000208D
:101530008DF805008DF8060001208DF8070001A840
:1015400001F0D0FE0121154804F055F84FF4805009
:10155000ADF8180001208DF81A0010208DF81B003E
:1015600006A9084800F069FA4FF48051054800F0D8
:101570003EFB202000900121684603F029FF07B0C0
:1015800000BD0000001001406400002088990008A0
:10159000B8990008C2990008BC990008004C0040A6
:1015A00000B587B00121480403F0B8F801210420F8
:1015B00003F0D4F80620ADF8180018208DF81B00B1
:1015C00003208DF81A0006A93F4800F036FA0920DA
:1015D000ADF8180004208DF81B0006A93A4800F069
:1015E0002CFA3A488078012805D13848C07810B1E3
:1015F0000020019015E03548807828B93348C0783C
:1016000010B9002001900CE03048807828B92F48AC
:10161000C07810B10120019003E000202B498870B0
:10162000C8702A4840782A4951F820000290294879
:101630009DF8041030F81100ADF80C002348007933
:10164000254931F81000ADF80E002048C078234934
:1016500031F81000ADF810001C484079204931F8ED
:101660001000ADF814000C20ADF8120002A91D48BE
:1016700004F01CF8012240F225511A4803F0F1FF52
:1016800040F22551174803F0A7FF40F226611548A4
:1016900003F0A2FF26208DF8000000208DF8010045
:1016A0008DF8020001208DF80300684601F01AFE53
:1016B00001210C4803F09FFF20200190012101A887
:1016C00003F02CFF07B000BD0008014064000020BB
:1016D00088990008B8990008C2990008BC990008C8
:1016E000C69900080044004000B587B00121880475
:1016F00003F014F80121082003F030F84FF488407B
:10170000ADF8180018208DF81B0003208DF81A0082
:1017100006A93E4800F091F94FF42050ADF81800AA
:1017200004208DF81B0006A9384800F086F93848D7
:10173000407A012805D13648807A10B10020019006
:1017400015E03348407A28B93148807A10B9002032
:1017500001900CE02E48407A28B92D48807A10B1CB
:101760000120019003E0002129484172817228483C
:10177000007A284951F82000029027489DF804106B
:1017800030F81100ADF80C002148C07A234931F837
:101790001000ADF80E001E48807A214931F8100083
:1017A000ADF810001A48007B1E4931F81000ADF862
:1017B00014000C20ADF8120002A91B4803F076FFBC
:1017C000012240F22551184803F04BFF40F22661F8
:1017D000154803F001FF27208DF8000000208DF848
:1017E00001008DF8020001208DF80300684601F029
:1017F00079FD01210C4803F0FEFE2020019001211B
:1018000001A803F0D3FE07B000BD0000000C0140AA
:101810006400002088990008B8990008C29900085F
:10182000BC990008C69900080048004010B5094856
:101830000078012801D1FFF7B3FE0648C0790128DE
:1018400001D1FFF751FF0348807B012801D1FFF749
:10185000FBFD10BD640000202DE9F04106460C465A
:101860001546FEF781FC3649088036B1012E13D0AB
:10187000022E20D0032E51D12CE0324800780128CE
:1018800004D12946204603F049FE04E02E492F48A2
:10189000006801F0A7FE47E02A48C079012804D17A
:1018A0002946204603F082FE04E0274927480068C5
:1018B00001F098FE38E02348807B012804D12946B6
:1018C000204603F085FD04E01F492048006801F030
:1018D00089FE29E01B48806D012819D1082D11DCF3
:1018E0006078217800EB012087B2EAB2A11C38466B
:1018F000FFF7BCF8012810D013491448006801F024
:1019000071FE0AE010491148006801F06BFE04E026
:101910000D490E48006801F065FE05E00A490B48D4
:10192000006801F05FFE00BF00BF05480088FEF7B9
:101930001FFC05490648006801F054FEBDE8F0812F
:101940001E0100206400002020010020240100204E
:101950002801002000B587B01E4B0FCB8DE80F008B
:101960001D491E4807F0E2FA1D491E4807F0F2FA29
:101970001D491E4807F002FB6946012005F04AF99F
:10198000401C01D100BFFEE700BF06A90F2005F0F3
:1019900041F9401C01D100BFFEE79DF81800002866
:1019A000F3D01349002005F00DF904A9082005F033
:1019B00031F91049042005F005F90D49097A89002B
:1019C000491C4FF43C5202EBC100012104F086F99E
:1019D00007B000BDEC990008434A0008394A0008E6
:1019E000014A0008114A0008B54A0008894A00085F
:1019F000360000206000002070B504460E461546F3
:101A0000AAB2E0B2314607F0D3FA70BD70B5034612
:101A10000C461546012613F0030F0BD1002205E0FA
:101A2000184603F05BF8A0545B1C521CAA42F7D383
:101A3000002600E00126304670BD2DE9F041024647
:101A400000250026002000230024002791F803C071
:101A50000CF00F0591F803C01CF0100F03D091F8A3
:101A600002C04CEA050591F800C0BCF1000F31D06E
:101A7000146800202BE04FF0010C0CFA00F3B1F8D1
:101A800000C00CEA03069E4220D183004FF00F0CE9
:101A90000CFA03F7BC4305FA03FC4CEA040491F882
:101AA00003C0BCF1280F06D14FF0010C0CFA00FC6A
:101AB000C2F814C00AE091F803C0BCF1480F05D188
:101AC0004FF0010C0CFA00FCC2F810C0401C0828B2
:101AD000D1D31460B1F800C0BCF1FF0F34DD5468FD
:101AE00000202EE000F1080C4FF0010808FA0CF37A
:101AF000B1F800C00CEA03069E4221D183004FF0EA
:101B00000F0C0CFA03F7BC4305FA03FC4CEA04047F
:101B100091F803C0BCF1280F05D100F1080C08FAB8
:101B20000CF8C2F8148091F803C0BCF1480F07D13B
:101B300000F1080C4FF0010808FA0CF8C2F8108008
:101B4000401C0828CED35460BDE8F081F0B50A46A9
:101B5000002300240021002500F00046B6F1004FCC
:101B600002D11D4EF16901E01B4E7168C0F30345BF
:101B700083B200F44016B6F5401F08D121F0706121
:101B8000154E766826F07066134F7E6012E000F402
:101B90008016B6F5801F06D1032606FA05F4A14388
:101BA00041F0706106E0460D360103FA06F6B143D6
:101BB00041F0706122B1460D360103FA06F6314359
:101BC00000F00046B6F1004F02D1034EF16101E092
:101BD000014E7160F0BD000000000140024600208F
:101BE000D3680B4201D0012000E000207047416122
:101BF00070470161704700BFFEE70146092903DC19
:101C000001F13002D0B208E00A2905DB0F2903DC1C
:101C100001F13702D0B200E0FF2070474CF6CC4013
:101C20000149086070470000003000404AF6AA20D1
:101C300001490860704700000030004001494860D9
:101C40007047000000300040014988607047000084
:101C5000003000400149086070470000003000403B
:101C60002DE9FE4F04460D4616461F46DDF830A00E
:101C70000020029001978046814601A807F08EF867
:101C80008DF808000298C0F3C00028700298C0F3D5
:101C9000031020706946019800F01CF981460199F3
:101CA00008440190DDE9001000EB01080198A8EB61
:101CB0000000022800DA06E001A807F076F830807C
:101CC0004FF0010900BF4846BDE8FE8F2DE9FF47F0
:101CD00004460D46164699460020039002960027BA
:101CE0008046009002A807F059F88DF80C00039880
:101CF000C0F30310022800D01FE001A9029800F0F1
:101D0000E9F88046029908440290DDE9011047187D
:101D10000298381A022800DA0FE002A807F03EF80D
:101D20008DF800000098C0F3C010207002A807F0E2
:101D300035F828704FF0010800BF404604B0BDE8F8
:101D4000F0872DE9FF5F06460C4617469846DDE909
:101D50000FABDDF838900020039011980290002519
:101D600000200190009002A807F018F88DF80C00F0
:101D70000398C0F30310032800D032E00398C0F3A7
:101D8000C00030700398C0F341002060039800F059
:101D9000010038706946029800F09CF801900299A1
:101DA000084402900099029845182A4602A948461C
:101DB00007F008F810B10298281A00D511E0206841
:101DC000002804DD02A806F0F0FFA8F80000029841
:101DD000281ACBF800000298CAF8000001200190F0
:101DE00000BF019804B0BDE8F09F2DE9FE4F054605
:101DF0000E4614461F46DDE90C9B00200290CDF8EC
:101E000004908046824601A806F0C8FF8DF80800BD
:101E10000298C0F30310092800D02CE0694601980D
:101E200000F058F88246019908440190DDE900105D
:101E300000EB01080198A8EB0000022800DA1AE084
:101E400001A806F0B2FF2880002020600DE0206885
:101E5000B04202DD4FF0FF3A0DE001A806F09EFF10
:101E60002268511C216047F8220001984045EED3BA
:101E70004FF0010A00BF5046BDE8FE8F2DE9F84340
:101E800005460C46012600270020206000BF4FF0C9
:101E9000FF38781C0746042801DD00BF16E0012149
:101EA0006846A8478046B8F1010F00D00EE09DF8C3
:101EB000001001F07F01206801FB06002060F601A0
:101EC0009DF8000010F0800FE1D100BF3846BDE85A
:101ED000F883000070B504460D46034804602946A7
:101EE0000248FFF7CBFF70BD4C050020716700086A
:101EF00030B50246002300BF0846CD1701EB5565FB
:101F0000ED11A1EBC515ECB2CD1701EB5565E9114B
:101F1000002901DD44F0800418465B1C145400299C
:101F2000EADC184630BD0000401C802801DA401C65
:101F30000AE0B0F5804F01DA801C05E003498842D1
:101F400001DAC01C00E0001D70470000FFFF1F0009
:101F50002DE9FC4104460F4615464FF0FF3800209E
:101F600001900026009001212046A847012800D0BA
:101F70001CE0012669462846FFF780FF601C009997
:101F8000FFF7B6FF064400983044B84200DD0DE08C
:101F9000A0190099A8470099884200D006E020784F
:101FA0008DF804000198C0F3031800BF4046BDE857
:101FB000FC81000008B505462E461848006801F06F
:101FC00089FB2AE0022300221146104601F000FF9F
:101FD0006A4600211148006801F08EFB04469DF816
:101FE0000000D0B905E0022300221146104601F09E
:101FF000EFFE70780028F6D0307A214605F068F8B8
:10200000206904F037FF0648C08EAF2148434FF6E1
:10201000FF7101EA800003490880D3E778040020BB
:102020003C040020800400202DE9FC4704460E46B5
:1020300015461F46DDF82880002001908146009457
:10204000042E02DA6FF0010924E0019865F307100D
:102050000190019867F3C3000190062D01D1012181
:1020600000E00021019861F3420001909DF8041006
:10207000684607F04CFC02210098FFF739FF0099F1
:10208000084400904146684607F047FC0098A0EBE2
:10209000040900BF4846BDE8FC8700002DE9FE4367
:1020A00005460E4614460295002001900090002738
:1020B0004FF0FF38204600F0A5F807468146FFF7AD
:1020C00033FFB04202DD6FF001088FE000208DF891
:1020D0000400019820F0F000103001909DF80410E9
:1020E00002A807F014FC39460298FFF701FF029995
:1020F00008440290207A042808D13EA102A807F0E3
:10210000F2FB042102A807F002FC07E03BA102A8B1
:1021100007F0E9FB032102A807F0F9FB00208DF886
:102120000000A17E009861F341000090E07E08B1BC
:10213000012100E00021009861F3820000900098E6
:10214000C0F3800058B194F83D10009861F3C400CA
:10215000009094F83C10009861F345100090206CBA
:1021600008B9A06C20B1009820F080008030009069
:10217000E06C08B9606D20B1009820F0400040305C
:1021800000909DF8001002A807F0C1FB218B02A867
:1021900007F0C3FB02A8D4E90423E16807F0D5FBEC
:1021A000E07E58B102A8D4E90A23616A07F0CDFBAA
:1021B00002A8D4E90D23216B07F0C7FB0098C0F3F8
:1021C000C01028B102A8D4E91123216C07F0BDFB8F
:1021D0000098C0F3801028B102A8D4E91423E16C60
:1021E00007F0B3FB0298A0EB050800BF4046BDE82E
:1021F000FE8300004D515454000000004D514973BE
:102200006470000070B504460025207A032801D1CF
:102210000C2503E0207A042800D10A25D4E9041211
:10222000E06801F04FF8801C0544E07E68B1D4E915
:102230000A12606A01F046F8861CD4E90D12206B80
:1022400001F040F83044801C0544206C08B9A06CB3
:1022500030B1D4E91112206C01F034F8801C05442F
:10226000E06C08B9606D30B1D4E91412E06C01F093
:1022700029F8801C0544284670BD70B504460D46FB
:102280000C222946204600F0E5F870BDF8B5054659
:102290000E46144600230422314628460094FFF7D8
:1022A000C3FEF8BD2DE9F04F87B005460F469046B6
:1022B0001C46DDE915B6DDE9109A0695002005906B
:1022C000049003900096204612A90EC900F042F82F
:1022D00004900290FFF728FEB84203DD6FF0010082
:1022E000039033E0059820F0F00030300590059819
:1022F00068F3C3000590059864F3420005900598C3
:1023000069F3000005909DF8141006A807F0FFFA85
:1023100004990698FFF7ECFD06990844069006A874
:1023200012A90EC907F011FB002C03DD514606A8C7
:1023300007F0F3FA324659460698FDF773FF069800
:10234000304406900698401B039000BF039807B0E6
:10235000BDE8F08F7FB50546089E002401A807C898
:1023600000F0B0FF801C30440444002D00DDA41CAC
:10237000204604B070BD2DE9FF5F05460E461746A6
:102380009846DDE90E9A0395002002900190009096
:1023900000245146484600F046F883460190FFF776
:1023A000C3FDB04202DDA01E009038E000208DF891
:1023B0000800029820F0F00080300290029867F345
:1023C000C3000290029820F00600801C02909DF845
:1023D000081003A807F09BFA01990398FFF788FDFE
:1023E000039908440390414603A807F096FA002495
:1023F0000FE004EB44000AEB800C03A89CE80E00FD
:1024000007F0A3FA109810F8241003A807F07FFA39
:10241000641C4C45EDDB0398401B009000BF009806
:1024200004B0BDE8F09F2DE9F04105460E460227B5
:1024300000240AE004EB440006EB800393E8070065
:1024400000F040FFC01C0744641CAC42F2DB38467D
:10245000BDE8F0812DE9FC4104460D4616460020FA
:102460000190471E0094022D01DA871E15E000201E
:102470008DF80400019866F3071001909DF8041090
:10248000684607F044FA00210098FFF731FD0099F3
:10249000084400900098071B00BF3846BDE8FC8147
:1024A0002DE9FF5F0025002001904CE2022300226D
:1024B0001146104601F08CFC03AA0021F94800687F
:1024C00001F00EF882469DF80C000028EDD1BAF814
:1024D00000000328E9D10020029081462AE0002470
:1024E0000DE0DAF80C00005DC9EBC901EE4A52F8C4
:1024F0002110095D884200D00AE0601C84B2C9EB5B
:10250000C901E94A52F82100FDF7BAFEA042E8D815
:1025100000BFC9EBC901E44A52F82100FDF7B0FE43
:10252000A04203D101200290C84606E009F1010053
:1025300000F0FF09B9F1040FD1DB00BF02980028B9
:10254000B3D000200290DAF8140004F0C9F9019029
:10255000019830B9D549D648006801F043F8BDE884
:10256000FF9FD4A1019804F09BF905462DB9CF49EE
:10257000CF48006801F036F8F1E7C8EBC801CA4A55
:1025800002EB8101098B686988420CD1C8EBC80055
:10259000114601EB8000008B401CC8EBC80102EB28
:1025A000810108830CE0A88A401CC8EBC801BE4A20
:1025B00002EB81010883BD49BD48006801F012F8B3
:1025C000BDA1019804F06CF905462DB9B749B8488A
:1025D000006801F007F8C2E7C821B948FDF73BFEE3
:1025E000B8A12869FDF753FE002870D1C8EBC800D8
:1025F000B6490844807930B10846C06E002867D1DA
:10260000B8F1030FFBD10026B8F1030F70D1B0A1D0
:10261000019804F045F905462DB9A449A44800687D
:1026200000F0E0FF9BE72869FDF72AFE86B2042E42
:1026300005DD9E499E48006800F0D4FF8FE7002723
:1026400000240BE02969085DFEF7CDF9311B491E16
:1026500089008840384387B2601C84B2B442F1DB01
:102660003846F91707EB1161090A954A1170F917F5
:1026700007EB11610912A7EB0121517096A1019896
:1026800004F00EF905462DB988498948006800F024
:10269000A9FF64E72869FDF7F3FD86B2304606EB33
:1026A000D0714910B6EB410105D0804980480068DF
:1026B00000F098FF53E706EBD671C822B2EB610F2A
:1026C00007DA7A497A48006800F08CFF47E782E031
:1026D0007BE0002421E004EBD47040100094B4EBC4
:1026E000400006D12969085DFEF77DF9000104E08C
:1026F00016E02969085DFEF776F904EBD4714910FC
:10270000891C6F4A515C0843C1B2A34604EBD470E4
:102710004010801C1154601C84B2B442DBDB4AE0E0
:102720006DA1019804F0BCF805462DB95F496048D9
:10273000006800F057FF12E72869FDF7A1FD86B297
:10274000304606EBD0714910B6EB410105D0574930
:102750005748006800F046FF01E706EBD671C82233
:10276000B2EB610F05DA51495148006800F03AFFB9
:10277000F5E600241DE004EBD47040100094B4EBA7
:10278000400005D12969085DFEF72DF9000103E03D
:102790002969085DFEF727F904EBD4714910484A0E
:1027A000515C0843A34604EBD47149105054601C9B
:1027B00084B2B442DFDBB34606EBDB70C0F34F02FA
:1027C0003F494046FFF748F8BAE0384938480068C2
:1027D00000F008FFB4E042A12869FDF758FD002889
:1027E0005ED1C8EBC800394908448079012806D079
:1027F0000846C06E012854D1B8F1030F51D1B8F189
:10280000030F72D132A1019804F04AF805462DB9A0
:1028100026492748006800F0E5FEA0E62869FDF794
:102820002FFD86B2042E05DD20492148006800F006
:10283000D9FE94E6002700240BE02969085DFEF725
:10284000D2F8311B491E89008840384387B2601C8A
:1028500084B2B442F1DB3846F91707EB1161090A7B
:10286000174A1170F91707EB11610912A7EB012143
:10287000517019A1019804F013F805462DB90B49C0
:102880000B48006800F0AEFE69E62869FDF7F8FC29
:1028900086B232460A48801C2969FDF7C3FC3AE03B
:1028A00048E041E07404002050580020200100203E
:1028B00024010020534E000044547970650000004C
:1028C00024590020745F484558000000640000202F
:1028D00043414E5F494400004461746100000000C0
:1028E000745F415343494900FFE7AFF21401019877
:1028F00003F0D6FF05462DB913491448006800F0CF
:1029000071FE2CE62869FDF7BBFC86B23246104802
:102910002969FDF787FCB8F1040F11DA32460C493A
:102920004046FEF799FF0BE007490848006800F0B1
:1029300059FE05E004490548006800F053FE0EE624
:10294000019803F081FFB1E520010020240100205F
:1029500024590020F0B5CBB0064658221F4935A8AF
:10296000FDF760FC0027C8251D4A283207CA38AB8E
:1029700007C31B4890F834108DF81111C08EADF8C4
:10298000EC0001208DF8EE0035AA294603A8FFF7D8
:1029900085FB0446224603A93046FFF72DF807467B
:1029A000A74202D000204BB0F0BD0E4A294603A832
:1029B000FFF7CEFA02280ED12B4603AA01A902A8DE
:1029C000FFF784F9012802D19DF8040008B1002026
:1029D000E9E70120E7E70020E5E70000589B000851
:1029E0003C040020159300082DE9F04FE7B00446A1
:1029F0000D464FF4C87103A8FDF72DFC03F00CFF42
:102A00008E4941F82400C4EBC4018D4A02EB8101D8
:102A1000088BC4EBC401134603EB8101098B491CED
:102A2000C4EBC40394460CEB83031983FDF77FFDCD
:102A3000074603F0DFFE8149009051F8240081A190
:102A4000009A03F0BFFE6888C82807DD7E497F48EA
:102A5000006800F0C7FD67B0BDE8F08F297901EB91
:102A600081017B4A02EB810003F0DFFE07467349D8
:102A700051F824003A4677A103F0A4FE28790028F3
:102A800048D18146834600260FE0691D8A5D03A96F
:102A900001EB090071A103F079F91FFA80FB09EB42
:102AA0000B001FFA80F9701C86B26888B042ECDC1B
:102AB000032C23D1002605E003A8805D01A98855D9
:102AC000701C86B2042EF7DB00208DF8080001A8E8
:102AD00003F0ABFE0746594951F824003A4661A17C
:102AE00003F070FE04A803F0A0FE0746534951F816
:102AF00024003A465DA103F065FE5EE003A803F002
:102B000094FE07464D4951F824003A4657A103F078
:102B100059FE52E0287901284AD1032C37D14FF0D1
:102B200000094FF0000B00260FE0691D8A5D01A926
:102B300001EB090049A103F029F91FFA80FB09EB19
:102B40000B001FFA80F9701C86B2042EEDDB00200A
:102B50008DF8080001A803F068FE0746374951F8D0
:102B600024003A463FA103F02DFE6888821EE91D2D
:102B700003A8FDF757FB03A803F057FE07462F49AC
:102B800051F824003A4639A103F01CFE15E06A888A
:102B9000691D03A8FDF746FB03A803F046FE0746A0
:102BA000264951F824003A4630A103F00BFE04E018
:102BB00025492648006800F015FD204951F82400F9
:102BC00003F0C8FE8246BAF1000F05D11E491F4826
:102BD000006800F007FD27E0C4EBC400184901EBD2
:102BE0008000C0F810A0C4EBC401154A02EB8101BB
:102BF0000869FDF745FBC4EBC401114A02EB8101F2
:102C00008882C4EBC4020E4B03EB8201194A107A8E
:102C100004F05EFA1848C08EAF2148434FF6FF71AA
:102C200001EA800015490880504604F023F9034961
:102C300051F8240003F008FE00BF0CE73C580020C8
:102C4000B0030020534E000020010020240100208A
:102C5000E0000020445479706500000025303258AF
:102C60000000000043414E5F49440000446174612C
:102C700000000000360000203C04002080040020FA
:102C800070B506460020604908706048C08EAF21CC
:102C900048434FF6FF7101EA80005D490880C82172
:102CA0005C48FDF7D8FA41F270705B4908805B48D8
:102CB0005649886200250FE0C5F10301890046FAF4
:102CC00001F101F00F00FEF798FF50498A6A05F103
:102CD0001C015054681CC5B2042DEDDB002483E0B8
:102CE000C4EB04104E4901EB8000C4EBC4014D4A13
:102CF00042F821000120C4EBC40102EB810188816C
:102D0000C4EBC400114601EB8000C4810020C4EB79
:102D1000C40102EB810108610120C4EBC40102EB94
:102D200081018882C4EBC40102EB81018875C4EB88
:102D3000C40102EB81010883C4EB04103A4901EBA2
:102D40008000C4EBC401394A42F821000120C4EBE1
:102D5000C40102EB81018881C4EBC400114601EB80
:102D60008000C4810020C4EBC40102EB8101086132
:102D70000120C4EBC40102EB810188820020C4EB76
:102D8000C40102EB810188750120C4EBC40102EB90
:102D900081010883002523E0C5F10301890046FA7B
:102DA00001F101F00F00FEF728FFC4EBC4011D4A3A
:102DB00052F8212005F114015054C5F10301890096
:102DC00046FA01F101F00F00FEF717FFC4EBC40152
:102DD000164A52F8212005F114015054681CC5B25E
:102DE000042DD9DB601CC4B2052CFFF679AF00209E
:102DF00000F04CFB0E4908600A210E4800F01AFC56
:102E00000D49086070BD0000820400203C040020D1
:102E100080040020745700207E0400203001002030
:102E200058010020B00300208402002050580020E8
:102E300074040020FC580020780400202DE9F043A1
:102E4000A3B00446C82631463848FDF704FA384A8C
:102E50004FF4FA713548FFF77BF82080208804286A
:102E60000BD004DC022807D003284BD123E009282B
:102E70000DD00D2846D11DE045E02C4B04F1120287
:102E800020A921A80096FEF7EBFE05463BE0274867
:102E900020AB21AA0121CDE9000604F11200FEF7C2
:102EA000A4FF0546B54204D022492348006800F03B
:102EB00099FB28E027E04FF064091C4A04F118014F
:102EC000081F01AB47C3201D22AB1FAA21A90090F8
:102ED00020A8FEF736FF0546BDF88820494606A81B
:102EE000FFF7D4F907461549087A3A4606A9FEF7CE
:102EF00083FD8046B84504D00E490F48006800F0B5
:102F000071FB00E000BF00BF2088042805D02088A6
:102F1000092802D02088032804D1214608480068E7
:102F200000F060FB284623B0BDE8F0837457002012
:102F30001593000820010020240100203600002005
:102F4000740400202DE9F0413E484078002877D0F5
:102F50003C480078002873D13B480088002804DDF5
:102F600039480088401E38490880384800880028C1
:102F700005DD36480088401E3449088060E003F0D3
:102F80004BFC334908613349B1F88800B1F8881027
:102F9000491C8BB22F49A1F88830FDF7C8FA0646C4
:102FA00003F028FC05462A492A4608692AA103F0AD
:102FB00009FC2A4803F039FC054625492A460869D8
:102FC00027A103F0FFFB28A003F02FFC05462049B2
:102FD0002A46086927A103F0F5FB1D49086903F09B
:102FE000B9FC04462CB925492548006800F0FAFAD6
:102FF0001BE01848C0F880400146D1F88000FDF77A
:103000003FF981B21348A0F884100E49087A11499B
:10301000703104F05DF81B48C08EAF2148434FF675
:10302000FF7101EA800008490880204603F022FF72
:103030000749086903F008FC134800880349088021
:10304000BDE8F08136000020800400207C040020D0
:103050003C580020B0030020534E0000F400002034
:10306000445479706500000048656172746265615E
:103070007400000044617461000000002001002021
:10308000240100203C0400207E04002008B50646F0
:1030900034466088FFF7F4FD0C23804A31468048AF
:1030A00000F0DEFB0D237F4A31467F4800F0D8FB5D
:1030B000F2E069460F2003F0ADFD9DF80000B0B9C5
:1030C0000020607079497A48006800F08BFA00258A
:1030D00008E00020C5EBC501764A02EB8101887546
:1030E000681CC5B2052DF4DB207A06F00CF901232B
:1030F00000221146104600F06BFE217A8900491C1F
:103100004FF4407202EBC10002F092FD00287CD027
:10311000132804D0172824D01C2877D1A2E000253A
:1031200008E00020C5EBC501624A02EB8101887509
:10313000681CC5B2052DF4DB228D207A04F1230131
:1031400003F094FC0746012F04D058495848006802
:1031500000F048FA642300221146104600F038FEC1
:1031600099E0217A8900491C4FF4007202EBC100FA
:1031700002F05EFD10F0010F09D0217A8900491C90
:103180004FF4007202EBC100012102F0A7FD60784C
:10319000E0B9207AFFF7DEFBC0B200909DF8000096
:1031A000012808D1642300221146104600F010FEC9
:1031B0009DF8000060704048C08EAF2148434FF634
:1031C000FF7101EA80003D4908804AE0207A03F05F
:1031D00079FE002802DD3A48FFF730FE002527E09F
:1031E000C5EBC500334901EB8000807DF0B92F4964
:1031F0002F48006800F0F6F941F22210C5EBC50136
:103200002C4A02EB8101C88101E031E040E0C5EBCE
:10321000C502284B03EB8201207A012203F084FFD0
:10322000C5EBC501234A02EB81018875681CC5B254
:10323000052DD5DB2148008898B9207A03F020FFBE
:1032400050B11D48C08EAF2148434FF6FF7101EACF
:1032500080001A49088004E014491548006800F00D
:10326000C1F918E000206070207A03F0B9FB12E089
:10327000002060704FF0FF3806E0A28A207A2023F9
:10328000012105F05FFF8046207A4045F5D102E03C
:103290000020607000BF00BF0BE7000070570020E7
:1032A000B51F000870470020A1240008200100205D
:1032B00024010020505800203C04002080040020FD
:1032C000DC58002037B50024009820B10098FCF7A6
:1032D000D7FF044600E0019C20463EBD00BFFEE74C
:1032E0007047000070B5002100230F22C4780CB392
:1032F000164C246804F4E064C4F5E064210AC1F1CA
:103300000403CA40447804FA03F18478144021434A
:1033100009010F4C0678A155047804F01F0501241B
:10332000AC4005786D114FF0E02606EB8505C5F839
:10333000004109E0047804F01F050124AC40054D6C
:103340000678761145F8264070BD00000CED00E0CF
:1033500000E400E080E100E002490143024A11601C
:10336000704700000000FA050CED00E0024A0A4038
:103370000243024B1A60704780FFFF1F08ED00E018
:1033800010B500F015F800F0F5FE00F021FF00F098
:1033900041FF00F0BFFE00F07FFE00F0D5FF00F01F
:1033A000FFFF00F077FF00F09DFF00F013F810BD65
:1033B0000548802102E0491E002204C00029FAD1FC
:1033C000024A034B1A607047EC5C0020E85E002064
:1033D000C40400207047000006480078012808D186
:1033E00005480078FF2804D203480078401C0249B1
:1033F00008707047EE040020E104002010B500249E
:103400001A480078012830D1FCF7AEFE044618486F
:10341000007820B116480078401E154908701448FD
:103420000078F8B913480078E0B901F01DF81248A7
:103430001249097850F82100114908600F480078B6
:103440001049097888420DD00D480068806B401CF7
:103450000B49096888630C480068401C0A490860E9
:10346000FCF7A2FE2046FCF783FE10BDEE04002010
:10347000E1040020E20400203C680020E404002075
:10348000FC040020E3040020C804002070B50546B9
:1034900000261048007808B1002070BDFCF764FEDB
:1034A00006460D480468006820B10B480068406873
:1034B000094908603046FCF75BFE4CB101202070E2
:1034C00000202081656005A06061204600F0D6FDE7
:1034D0002046E2E7E1040020CC0400203F00000089
:1034E0002DE9F04105460F4614464FF000082878B4
:1034F000012804D0012020700020BDE8F08136486A
:10350000007818B1022020700020F6E733480078D8
:1035100018B10D2020700020EFE7FCF725FE804653
:103520006E6846B1002068604046FCF721FE00202E
:1035300020703046E1E72A48006890F8300040F0FB
:1035400002002749096881F83000002024490968F1
:1035500081F8310022480068C762284600F050FD1B
:103560004046FCF705FE00F045FFFCF7FDFD8046F8
:103570001B48006890F8310020B101280DD00228C6
:103580000AD105E016480068066A002020700DE0A8
:1035900000260E20207009E000BF29461048006870
:1035A00000F018FD00260A20207000BF00BF002098
:1035B0000B49096881F830000949096881F8310030
:1035C00007490968C8610649096808624046FCF76E
:1035D000CFFD304691E70000E1040020E204002026
:1035E000F404002070B504460D460026207801281A
:1035F00001D0012070BDFCF7B7FD0646A07A60B18E
:10360000002302222946204600F0A0FC3046FCF7A9
:10361000AFFD00F0EFFE0020ECE7606820B130461F
:10362000FCF7A6FD1420E5E765603046FCF7A0FD39
:103630000020DFE72DE9F04106460F464FF0000875
:103640002048007810B10020BDE8F081FCF78CFD27
:1036500080461D480468006820B11B480068406827
:10366000194908604046FCF783FDFCB1FCF77CFD7E
:10367000804616480568D5B100680068134908609F
:103680004046FCF775FD6E6006EB8700A860EE60B3
:103690002E61AF820020E88202202070002020816D
:1036A00065600BA06061204600F0E8FC08E0064879
:1036B00000686060044804604046FCF759FD00243F
:1036C0002046C1E7E1040020CC0400200C050020C6
:1036D0003F00000070B505460026FCF745FD064694
:1036E0006C686068E060606820610020E0823046BD
:1036F000FCF73EFD002070BD2DE9F04707468846E7
:1037000015464FF000093878022804D001202870AF
:103710000020BDE8F0873C48007818B102202870EE
:103720000020F6E73948007818B10D2028700020F5
:10373000EFE7FCF719FD81467C68E08A98B12169C2
:10374000081D20610E68E08A401EE082A1682069A1
:10375000884201D1606820614846FCF709FD0020DD
:1037600028703046D5E72A48006890F8300040F0CD
:1037700004002749096881F83000002024490968BD
:1037800081F8310022480068C0F82C80384600F0EB
:1037900037FC4846FCF7ECFC00F02CFEFCF7E4FCA0
:1037A00081461B48006890F8310020B101280DD0F7
:1037B00002280AD105E016480068066A0020287031
:1037C0000DE000260E20287009E000BF39461048A1
:1037D000006800F0FFFB00260A20287000BF00BF31
:1037E00000200B49096881F830000949096881F80F
:1037F000310007490968C8610549096808624846F7
:10380000FCF7B6FC304684E7E1040020E204002027
:10381000F404002010B50B48007890B900F024FEA5
:10382000094800780949087009480749097850F89B
:103830002100084908600846006807490860FCF74D
:103840009AFC10BDEE040020E4040020E3040020F4
:103850003C680020FC040020F404002070470000B5
:103860002DE9FE4F06460F4690461C464FF00009D4
:10387000FCF77AFC81461F48007828B14846FCF7DF
:1038800077FC3C20BDE8FE8F1B4850F8240060BB4D
:103890000120194941F824004846FCF769FC00233F
:1038A00042463946304600F0B3F982460020009087
:1038B00001900346024651460290204600F0EAFD80
:1038C000054635B90D48007801280CD100F092FD6D
:1038D00009E0FCF749FC81460020074941F8240033
:1038E0004846FCF745FC2846CCE74846FCF740FC38
:1038F0002820C7E7E10400203C680020EE040020F7
:103900002DE9F04F85B081468A4693461C46DDE995
:103910000F78129D00200390FCF726FC03902348AB
:10392000007830B10398FCF723FC3C2005B0BDE8DB
:10393000F08F1F4850F8240088BB01201C4941F833
:1039400024000398FCF714FC2A464146384600F050
:10395000D7FE2B465A465146484600F059F9049086
:103960001198CDE9008002953A4620460E9B0499B5
:1039700000F090FD064636B90E48007801280CD1BB
:1039800000F038FD09E0FCF7EFFB03900020084948
:1039900041F824000398FCF7EBFB3046C6E7FFE74D
:1039A0000398FCF7E5FB2820C0E70000E1040020B5
:1039B0003C680020EE040020704700002DE9F04133
:1039C000054600274748007810B14020BDE8F08147
:1039D0003F2D01D13E20F9E7FCF7C6FB0746FF2D3E
:1039E00003D14148006890F83250404850F82540D3
:1039F00024B93846FCF7BCFB4320E7E7012C04D18F
:103A00003846FCF7B5FB3D20E0E714F8340F3849A1
:103A1000085C617888432178354A505414F8340999
:103A20001146085C30B994F8361032480078884363
:103A300030490870E06918B12046E16900F0CAFA1F
:103A4000666A16B1304600F053FB0020E06284F84D
:103A5000300084F8310028480078FF2804D2264836
:103A60000078401C244908703846FCF781FB00F0C0
:103A70006BFAFCF779FB07461F48007820B11E4817
:103A80000078401E1C490870204600F041F81B4891
:103A90000078401E194908700020144941F825009B
:103AA000A06930B9002061698861154960690860C2
:103AB00005E0D4E905014861D4E9051088611148A1
:103AC000006860610F4804600FA0E0643846FCF7AE
:103AD0004FFB0E480078012801D100F08BFC00203C
:103AE00074E70000E1040020F40400203C6800209A
:103AF000E6040020E5040020E2040020EF0400209A
:103B000000050020F80400203F000000EE04002023
:103B1000704770472DE9F04106460F4614464FF0B6
:103B200000081548007818B112202070BDE8F08117
:103B3000FCF71AFB8046FF2E03D11048006890F86E
:103B400032600F4850F826502DB94046FCF710FB64
:103B500043202070EAE7012D05D14046FCF708FB21
:103B600043202070E2E7EF644046FCF701FB0020B1
:103B7000207000BFDAE70000E1040020F404002018
:103B80003C680020704770472DE9F04707460D4616
:103B90004FF0000A002028606860FCF7E5FA8246D2
:103BA000FF2F03D11848006890F83270174850F87A
:103BB00027402CB95046FCF7DBFA4320BDE8F087DC
:103BC000012C04D15046FCF7D3FA4320F6E7207CC1
:103BD00010F0010F04D15046FCF7CAFA4520EDE77A
:103BE0000026D4F80C90D4F808805046FCF7C0FAB0
:103BF00000E0761C58F8041B0029FAD02E60A9EBCF
:103C0000060068600020D9E7F40400203C6800202A
:103C100070B5044610464FF080750560051F2846B4
:103C20002C60214E051F28462E604FF01236051FCE
:103C300028462E604FF00336051F28462E604FF0B1
:103C40000236051F28462E607610051F28462E6076
:103C5000051F284629604FF01136051F28462E60A3
:103C60004FF01036051F28462E604FF00936051F0D
:103C700028462E604FF00836051F28462E604FF06C
:103C80000736051F28462E604FF00636051F2846CA
:103C90002E604FF00536051F28462E604FF0043683
:103CA000051F28462E6070BD0D4600082DE9F04125
:103CB00005464FF00008FCF757FA8046FF2D05D166
:103CC0002048006890F83250012608E01D4800683E
:103CD00090F83200A84201D1012600E000261A48DF
:103CE00050F825402CB94046FCF742FA4820BDE880
:103CF000F081012C04D14046FCF73AFA4320F6E764
:103D000094F834701148C05D94F8351088430F4919
:103D1000C8550846C05D30B994F836100C48007894
:103D200088430B49087094F8300040F0080084F88C
:103D300030004046FCF71CFA012E01D100F05AFB7E
:103D40000020D4E7F40400203C680020E6040020B2
:103D5000E50400207047000070B5054600261748AE
:103D6000007800B170BD1648007800B1FAE71DB3C5
:103D7000FCF7FAF906461348006890F834401248F8
:103D8000005D1049096891F8351088430E490855BF
:103D90000846005D40B90B48006890F836100B48A3
:103DA000007888430949087006480068C5623046B3
:103DB000FCF7DEF900F01EFB00BFD3E7E1040020B2
:103DC000E2040020F4040020E6040020E5040020C2
:103DD0002DE9F04105460E4617461C46124800786C
:103DE00010B15520BDE8F0811048007808B13220AC
:103DF000F8E74FF47A7060434FF47A71B0FBF1F159
:103E00004FF461606843C6EB061200EB8200384451
:103E100000EB4002C2EBC01001EBC0084046FFF7C8
:103E20009BFF0020DEE70000E1040020E204002008
:103E300070B5002600F076F8FCF796F90646334890
:103E40000068401C314908603046FCF791F9304861
:103E50000078012857D12F48007820B1012804D0DC
:103E6000022809D103E001250BE0002509E0012526
:103E700001202849087004E0012500202549087028
:103E800000BF00BF05B970BD2348046837E0FCF7E8
:103E90006BF90646E06A70B3E06A401EE062E06AD1
:103EA00048BB94F8300010F0370F09D014F8300FE9
:103EB00000F0C800207001206070A4F1300402E01E
:103EC000002084F8310094F8300010F0080F12D16F
:103ED00004F13404A0781149097840EA01000F493F
:103EE000087020780E49085C617840EA010014F8F7
:103EF00034190B4A505464693046FCF739F994F888
:103F000032003F28C3D100BFBDE7000014050020E8
:103F1000EE0400200405002000050020E504002038
:103F2000E60400207047000010B5FFF755FAFFF7D0
:103F30007FFF04480068401C02490860FFF75EFAF2
:103F400010BD000000000020704700002DE9F04F78
:103F500005460F4690469946A87A1A490E5C05F127
:103F60000B00805D11F800B00BEBC60000F0FF0AFB
:103F7000154850F82A40002004F12004E060276032
:103F8000207C20EA0800207484F81190207CA4F1A1
:103F9000200410F0080F0DD194F836000B49097871
:103FA00008430A4908700A48805D94F835100843B0
:103FB000074988552946204600F00CF85046BDE8D0
:103FC000F08F0000579A00083C680020E5040020AC
:103FD000E604002010B590F8342001F10B039B5C3F
:103FE00090F83540A34301F10B04A35423469B5C96
:103FF00023B98B7A90F83640A3438B7210BD000032
:1040000010B51B4A1268D061194A126892F8343010
:1040100000F10B02D25C164B1B6893F835301A4343
:10402000134B1B6893F8344000F10B031A55827A46
:104030000F4B1B6893F836301A4382720C4A126891
:1040400092F834100B4A525C094B1B6893F83530D8
:104050009A43084B5A541A46525C42B9044A1268B1
:1040600092F83630044A12789A43034B1A7010BD06
:10407000F4040020E6040020E504002001460022AC
:104080008A72002005E0002301F10B021354421C48
:10409000D0B20828F7D370472DE9F041A02111488C
:1040A00000F048F900250DE0681C86B20D4800EBD1
:1040B000051400EB06170020207067600AA0E0607E
:1040C000681C85B2092DEFD3064800EB05140020CB
:1040D0002070606004A0E060024804490860BDE808
:1040E000F08100009C6300203F000000D00400200D
:1040F00030B501464A6808682AB9CC68606028B1C2
:104100000025456002E0106000B142608B68002528
:104110005D6230BD70B54FF49661134800F00AF946
:10412000002411E0601C85B204EB44000E4901EB51
:10413000C00305EB450001EBC006002018705E606F
:104140000AA05861601C84B2312CEBD304EB44000C
:10415000054901EBC00300201870586003A05861A6
:1041600008460349086070BDEC5E00203F00000077
:10417000CC04002000200B4908600B4908700B4953
:1041800008700B4908700B4908700B4908600B490F
:1041900008600B4908600B4908600B4908700B491F
:1041A0000870704714050020E1040020E20400209C
:1041B000EF040020EE040020C8040020F0040020DA
:1041C000DC040020D8040020E004002010050020BA
:1041D00000210A4A1170002004E00021084A11540D
:1041E000411CC8B20828F8D30021064A1170064ABB
:1041F0001170064A1160064A11607047E5040020FC
:10420000E6040020E3040020E4040020FC04002075
:10421000F404002070B54FF4E761194800F08AF803
:104220004FF48071174800F085F8002413E0601CFB
:10423000C5B2C4EBC40000EB4000114901EB8003A0
:10424000C5EBC50000EB400001EB80065E610EA0EF
:10425000D864601CC4B2152CE9D3C4EBC40000EBD5
:104260004000074901EB80030020586106A0D86494
:1042700000200649086002480549086070BD00003A
:104280003C6900203C6800203F0000000005002041
:10429000F804002000B587B00320002180220A4BDB
:1042A000CDE90132CDE903104FF6FF703F23074AF5
:1042B00000900748FFF724FB06AA06A13F20FFF75E
:1042C00029FC07B000BD00003C66002038680020D3
:1042D000E545000875432F4F532D49492049646C2B
:1042E0006500000000B587B00320002180220A4B42
:1042F000CDE90132CDE903104FF6FE703E23074AA7
:1043000000900748FFF7FCFA06AA06A13E20FFF737
:1043100001FC07B000BD00003C64002038660020AE
:104320002546000875432F4F532D4949205374618A
:104330007400000004E0002200F8012B4A1E91B234
:104340000029F8D17047000070B578211148FFF7B7
:10435000F1FF00240EE004EB44000E4901EBC00520
:10436000601C00EB400001EBC00068600AA06861BF
:10437000601C84B2042CEED304EB4400054901EB2D
:10438000C0050020686004A0686108460349086011
:1043900070BD0000747000203F0000000805002080
:1043A0002DE9F0414FF434711048FFF7C3FF0024AA
:1043B0000DE0601C86B204EB44000C4901EBC00523
:1043C00006EB460001EBC0072F60601C84B21D2C79
:1043D000EFD304EB4400054901EBC0050020286041
:1043E000084603490860BDE8F0810000EC70002039
:1043F0000C05002010B50024FBF7B6FE0446134858
:104400000078F8B912480078E0B900F02DF81148AA
:104410001149097850F82100104908600E480078C9
:104420000F49097888420DD00C480068806B401C09
:104430000A49096888630B480068401C09490860FC
:10444000FBF7ADFE2046FBF793FE10BDE104002014
:10445000E20400203C680020E4040020FC0400206A
:10446000E3040020C80400200649074A1278885C4B
:104470000649095C034A515C01EBC001044A117012
:1044800070470000579A0008E5040020E604002069
:10449000E40400202DE9F84F05460F469046994662
:1044A000DDE90AAB00200090FBF75EFE0090464875
:1044B0000468002C7ED004F1180454F8040C42491E
:1044C00008600098FBF754FE44F8187CA57600209D
:1044D00020766076606144F814BC44F80CAC44F873
:1044E000108C0C9824F8080C24F8069C0020E07727
:1044F000E810207705F00700E076217F0120884052
:10450000A077E17E01208840607700206060E06055
:10451000A0602062A0626062E06220632BA0606302
:10452000A4F118044FF0000606E0002104F1500049
:1045300040F82610701CC6B2002EF6D02046FFF7B9
:104540008DF9FBF711FE0090214840F825400098B6
:10455000FBF70EFE2046FFF72FFAFBF705FE009053
:104560001C48006860610020A0611A48006810B112
:104570001848006884611748046004F13404A07886
:104580001549097840EA0100134908702078134959
:10459000085C617840EA010014F834190F4A50545D
:1045A0000F48007800F101000D4908700098FBF7F2
:1045B000DFFD00E002E00020BDE8F88F0098FBF787
:1045C000D7FD4220F8E70000F80400203F0000007B
:1045D0003C68002000050020E5040020E6040020DF
:1045E000EF040020002400BF00BFFBF7BDFD044620
:1045F00005480068401C044908602046FBF7B8FDE8
:10460000FFF787FAF1E70000F004002010B5044836
:104610000068FFF7B7FAFF20FFF7D0F910BD0000E0
:10462000F404002000BF00BF02E0C820FFF794FBA5
:104630001F4800780028F8D01E4800686421B0FBAD
:10464000F1F01C4908600846006828B900201A49A2
:104650000870FF20FFF72AFBFBF786FD044615488C
:10466000006864214843154908602046FBF780FD37
:1046700000BFFBF779FD0446104800681049086048
:1046800000200E4908602046FBF772FD0C480068C8
:1046900008490968B0FBF1F0C0F1640006490870F0
:1046A000FFF771FA00F00EF86420FFF755FBE0E722
:1046B000E0040020D8040020D4040020F0040020EE
:1046C000DC0400207CB5002514E069462846FFF78D
:1046D0005BFA064666B9094850F8254044B1012CFA
:1046E00006D0D4E9020100EB810060640198A06467
:1046F000681CC5B23F2DE8D97CBD00003C68002095
:1047000012F0010F08D012F0020F05D002E0491E8E
:10471000002308C00029FAD17047000029B1064AD9
:10472000D2690243044BDA6104E0034AD26982434E
:10473000014BDA61704700000010024029B1064ABF
:1047400012690243044B1A6104E0034A126982436E
:10475000014B1A61704700000010024029B1064A5F
:1047600092690243044B9A6104E0034A92698243CE
:10477000014B9A61704700000010024029B1064ABF
:10478000D2680243044BDA6004E0034AD2688243F1
:10479000014BDA6070470000001002400F480068CB
:1047A00040F001000D490860084640680C49084087
:1047B0000A494860084600680A49084007490860F5
:1047C0000846006820F4802008600846406820F40D
:1047D000FE0048604FF41F008860704700100240E0
:1047E0000000FFF8FFFFF6FE30B500210022002494
:1047F00000232D4D6D6805F00C0121B1042905D071
:10480000082923D105E0294D056022E0274D0560E8
:104810001FE0254D6D6805F47012234D6D6805F499
:104820008034022505EB92421CB9214D55430560A9
:104830000BE01D4D6D6815F4003F03D01C4D554332
:10484000056002E0194D5543056002E0174D056013
:1048500000BF00BF144D6D6805F0F0010909154D4A
:104860006B5C0568DD4045600F4D6D6805F4E061E7
:10487000090A104D6B5C4568DD4085600A4D6D6826
:1048800005F46051C90A0B4D6B5C4568DD40C5609D
:10489000054D6D6805F44041890B074D6B5CC5689B
:1048A000B5FBF3F5056130BD0010024000127A003F
:1048B00000093D00B0040020C004002010B596B0EF
:1048C000522201A94B48FDF7A1F801AC2078AA2893
:1048D00008D16078552805D1A078AA2802D1E078BF
:1048E000552807D0444801460A8A8281897C817311
:1048F00016B010BD2079052806DD3F4801460A8A1A
:104900008281897C8173F3E704F1320414F82E0C60
:104910003949087034F82C0C488034F8280C888009
:1049200034F8260C3549486734F8240C3249C880DD
:10493000084654F81C1CC0F80F1034F8180C2E4907
:10494000888208460A8A8281897C817354F8141C03
:10495000C0F8231034F8100C27490885084654F88D
:104960000C1CC0F8161054F8081CC0F81A10207857
:104970002249886561782148C16561880166A188FE
:104980004166A1798166E179C166207A1B49087088
:10499000607A4870A07A8870E07AC870207B0871CD
:1049A000607B4871A07B8871207CC871617C134852
:1049B0000172A17C4172E17C8172217DC172617DB5
:1049C0000173A17D4173207E0C498873617E0B4881
:1049D000C173A17E0174E17E4174217F8174617F86
:1049E0000175E07FA4F13204044981F8790000BF29
:1049F0007EE7000000A003083600002064000020CD
:104A000010B510210148FDF7F4F810BD0008014071
:104A100010B510210148FDF7EAF810BD000801406B
:104A200021B1028842F04002028004E002884FF681
:104A3000BF731A4002807047012080F3108800BFC6
:104A40007047002080F3108800BF704710B5002227
:104A5000028802F441520B884C8823438C882343FC
:104A6000CC8823430C8923434C8923438C892343DB
:104A7000CC8923431A430280838B4FF2FF74234077
:104A800083830B8A038210BD00BF0948008910F0A0
:104A9000020FFAD0FF200649888100BF0448008930
:104AA00010F0010FFAD002488089C0B270470000B0
:104AB0000030014000BF0849098911F0020FFAD007
:104AC0000549888100BF0449098911F0010FFAD016
:104AD000014989897047000000300140014608788B
:104AE0007047704710B500F001F810BD0CB50020FC
:104AF000019000903248006840F4803030490860EE
:104B000000BF2F48006800F4003000900198401C5E
:104B10000190009818B90198B0F5A06FF1D128481C
:104B2000006810F4003F02D00120009001E0002056
:104B300000900098012842D12248006840F01000FF
:104B4000204908600846006820F003000860084615
:104B5000006840F002000860194840681849486041
:104B60000846406848600846406840F480604860F5
:104B70000846406820F47C1048600846406840F4CD
:104B8000E81048600846006840F08070086000BF88
:104B90000B48006810F0007FFAD00948406820F008
:104BA0000300074948600846406840F0020048603A
:104BB00000BF0348406800F00C000828F9D10CBD84
:104BC000001002400020024010B51348006840F079
:104BD00001001149086008464068104908400E4924
:104BE0004860084600680E4908400B4908600846BE
:104BF000006820F4802008600846406820F4FE0029
:104C000048604FF41F008860FFF76CFF4FF00060B2
:104C10000449086010BD0000001002400000FFF8C9
:104C2000FFFFF6FE08ED00E01FB54FF0804000F0FA
:104C300003F901210846FFF771FD1320ADF80800C4
:104C400040F26710ADF804000020ADF80A00ADF89E
:104C5000060001A94FF0804000F0FCF9012241213B
:104C6000880700F0EEF90121880700F0D8F81C2031
:104C70008DF8000000208DF8010001208DF8020061
:104C80008DF803006846FEF72DFB1FBD0C48008819
:104C9000002804DD0A480088401E094908800948A8
:104CA0000088002804DD07480088401E0549088068
:104CB0000448008810B90A200249088070470000A3
:104CC000840400208604002010B5FEF785FB012136
:104CD000880700F0A5F9012805D10121800700F01F
:104CE0009BF8FFF7D3FFFEF789FB10BD1FB51748F0
:104CF00000F0A2F801210220FFF710FD0120ADF81D
:104D0000080048F69F40ADF804000020ADF80A0006
:104D1000ADF8060001A90D4800F09CF901224121DF
:104D20000A4800F08EF90121084800F078F81D20AB
:104D30008DF8000000208DF8010001208DF80200A0
:104D40008DF803006846FEF7CDFA1FBD0004004051
:104D500010B5FEF7F7F800F015FD10BD10B5FEF721
:104D60003BFB0121064800F05BF9012805D1012138
:104D7000034800F051F8FFF7EBFFFEF73FFB10BDD3
:104D8000000400401FB5184800F056F80121042027
:104D9000FFF7C4FCC720ADF8080044F24F60ADF83F
:104DA00004000020ADF80A00ADF8060001A90E4885
:104DB00000F050F9012241210B4800F042F9012195
:104DC000094800F02CF81E208DF8000000208DF816
:104DD000010004208DF8020001208DF803006846D0
:104DE000FEF780FA1FBD0000000800407047000079
:104DF00010B5FEF7F1FA0121064800F011F901287B
:104E000005D10121034800F007F8FFF7EFFFFEF797
:104E1000F5FA10BD00080040CA430282704721B174
:104E2000028842F00102028004E002884FF6FE731D
:104E30001A4002807047000010B50446684884425A
:104E400008D10121C014FFF799FC0021E014FFF7FD
:104E500095FCC4E0B4F1804F08D101210846FFF76A
:104E60006DFC00210120FFF769FCB8E05D48844239
:104E700008D101210220FFF761FC00210220FFF789
:104E80005DFCACE05848844208D101210420FFF7C2
:104E900055FC00210420FFF751FCA0E05348844258
:104EA00008D101210820FFF749FC00210820FFF765
:104EB00045FC94E04E48844208D101211020FFF7C0
:104EC0003DFC00211020FFF739FC88E0494884426E
:104ED00008D101212020FFF731FC00212020FFF71D
:104EE0002DFC7CE04448844208D101214014FFF7A6
:104EF00045FC00216014FFF741FC70E03F4884420C
:104F000009D10121C804FFF739FC00214FF400202A
:104F1000FFF734FC63E03A48844209D101210805D7
:104F2000FFF72CFC00214FF48010FFF727FC56E020
:104F30003448844209D101214805FFF71FFC0021B4
:104F40004FF40010FFF71AFC49E02F48844208D1C3
:104F500001214020FFF7F2FB00214020FFF7EEFB8C
:104F60003DE02A48844208D101218020FFF7E6FB7A
:104F700000218020FFF7E2FB31E02548844208D180
:104F800001218015FFF7DAFB0021A015FFF7D6FB02
:104F900025E02048844209D101210804FFF7EEFBF7
:104FA00000214FF48030FFF7E9FB18E01A488442F3
:104FB00009D101214804FFF7E1FB00214FF4003043
:104FC000FFF7DCFB0BE01548844208D1012188047F
:104FD000FFF7D4FB00214FF48020FFF7CFFB10BD7B
:104FE000002C01400004004000080040000C00407C
:104FF000001000400014004000340140004C01400B
:10500000005001400054014000180040001C0040C6
:1050100000200040004001400044014000480140A1
:1050200030B50246002000230024158A05EA01035A
:10503000958905EA010413B10CB1012000E00020BC
:1050400030BD1AB183890B43838102E083898B438E
:1050500083817047002202881D4B98420ED01D4B61
:1050600098420BD0B0F1804F08D01B4B984205D02E
:105070001A4B984202D01A4B984204D14FF68F73C4
:105080001A404B881A43174B984207D0164B984248
:1050900004D04FF6FF431A40CB881A4302808B8816
:1050A00083850B8803850A4B98420BD0094B9842A5
:1050B00008D00E4B984205D00D4B984202D00D4BB4
:1050C000984201D10B7A0386012383827047000046
:1050D000002C014000340140000400400008004062
:1050E000000C00400010004000140040004001404F
:1050F0000044014000480140064645F25550FCF787
:10510000A9FD0620FCF79AFD4FF4EA70FCF79CFD20
:10511000FCF78CFDFCF782FD344644E0FCF786FD8D
:1051200000F03AFD002536E005EB450000EBC51028
:105130001D4911F8100001282BD11C491C4800689A
:10514000FEF750FA607820B3002005EB450101EB33
:10515000C511154A02F81100207848B905EB450041
:1051600000EBC51002EB40012846FDF73DFC10E0C6
:10517000207801280DD0207802280AD02078032832
:1051800007D02078042804D008490A480068FEF7B0
:1051900029FA681CC5B2042DC6DB01230022114682
:1051A0001046FEF715FEB9E75C060020200100203E
:1051B00028010020240100200020FEF767F917498C
:1051C00008602AE04FF400711548FCF710FD154AFD
:1051D000002112480068FEF783F912480078B0B940
:1051E0004FF400710E48FCF7F9FC28B14FF4007140
:1051F0000B48FCF7FCFC04E04FF400710848FCF796
:10520000F8FC2823002211461046FEF7E1FD012399
:10521000002211461046FEF7DBFDD3E728010020EF
:10522000001401402C010020044625460020FEF712
:105230002DF9314908605EE0687830B34FF4807131
:105240002E48FCF7D6FC2E4A00212B480068FEF7BA
:1052500047F92B480078002847D14FF48071274840
:10526000FCF7BCFC28B14FF480712448FCF7BFFC6C
:1052700004E04FF480712148FCF7BBFC502300226E
:1052800011461046FEF7A4FD2FE04FF4FA730022FA
:1052900011461046FEF79CFD4FF480711748FCF74D
:1052A0009DFC28B14FF480711448FCF7A0FC04E089
:1052B0004FF480711148FCF79CFC4FF4FA73002204
:1052C00011461046FEF784FD4FF480710B48FCF741
:1052D00085FC28B14FF480710848FCF788FC04E095
:1052E0004FF480710548FCF784FC0123002211462D
:1052F0001046FEF76DFD9FE72401002000140140D9
:105300002C01002010B5044628230F4A0F491048ED
:10531000FEF7A6FA29230F4A00210F48FEF7A0FA4C
:105320000A48007828B909230C4A08490C48FEF7B6
:1053300097FA3C230B4A05490B48FEF791FA0220E5
:10534000FEF7B4FC10BD0000F00A0020360000207B
:1053500029520008700B0020B95100087027002066
:105360008D300008703F0020F950000810B5044649
:105370002146022000F076FA10BD000010B540F280
:105380002551124800F043F958B11048001D00881B
:10539000C4B22046FFF7EAFF40F225510B4800F067
:1053A0001BF940F22661094800F031F950B10022A2
:1053B00040F22661054800F054F940F22771034895
:1053C00000F00AF90148001D008810BD004C0040A3
:1053D00070B505460E4600244FF480510948FCF78D
:1053E00008FC00BF0AE0285D0749088000BF0648A6
:1053F000001F008810F0400FF9D0641CB442F2D3B3
:1054000070BD000000100140044C004070470000D7
:1054100010B540F22551114800F0F9F828B10F48B5
:105420008088C4B22046FFF7F1FF40F227710B4895
:1054300000F0EDF820B140F22771084800F0CCF8F8
:105440000648808840F22551044800F0C5F840F233
:105450002771024800F0C0F810BD00000050004065
:105460007047000010B540F22551124800F0CFF807
:1054700030B11048001D0088C4B22046FFF7F0FF8D
:1054800040F227710B4800F0C2F820B140F22771BA
:10549000084800F0A1F80748001D008840F2255197
:1054A000044800F099F840F22771024800F094F89F
:1054B00010BD00000038014010B504462146002010
:1054C00000F0D0F910BD000010B540F2255112488F
:1054D00000F09DF858B11048001D0088C4B2204665
:1054E000FFF7EAFF40F225510B4800F075F840F253
:1054F0002661094800F08BF850B1002240F2266185
:10550000054800F0AEF840F22771034800F064F857
:105510000148001D008810BD0044004010B502463F
:10552000002000BF0AE0135C064C238000BF054B3F
:105530001B1F1B8813F0400FF9D0401C8842F2D388
:1055400010BD00000444004010B50446214601206F
:1055500000F088F910BD000010B540F22551124846
:1055600000F055F858B11048001D0088C4B220461C
:10557000FFF7EAFF40F225510B4800F02DF840F20A
:105580002661094800F043F850B1002240F226613C
:10559000054800F066F840F22771034800F01CF857
:1055A0000148001D008810BD0048004010B50246AB
:1055B000002000BF0AE0135C064C238000BF054BAF
:1055C0001B1F1B8813F0400FF9D0401C8842F2D3F8
:1055D00010BD00000448004010B500220023A1F5D2
:1055E00010646A3C00D100BF0A1201249440A3B2A7
:1055F000DC43048010BD21B1828942F400528281D3
:1056000004E082894DF6FF731A408281704770B5BD
:1056100002460024002300250020A1F510666A3E02
:1056200000D100BFC1F3421501F01F03012606FAA5
:1056300003F3012D02D19689334006E0022D02D1F9
:10564000168A334001E0968A33400C12012606FA8E
:1056500004F41688344013B10CB1012000E000209E
:1056600070BDF0B503460024002600250020A1F5FA
:1056700010676A3F00D100BF1846C1F3421401F021
:105680001F06012707FA06F5012C01D10C3004E0B2
:10569000022C01D1103000E014301AB107682F43FA
:1056A000076002E00768AF430760F0BD2DE9F047EF
:1056B00086B005460E460024A24600BFA14600273C
:1056C000B08900B100BF2F462C8A4CF6FF70044011
:1056D000F08804432C82AC894EF6F3100440B08865
:1056E00031890843718908430443AC81AC8A4FF681
:1056F000FF400440B0890443AC8201A8FFF774F86E
:105700001F48874202D1DDF810A001E0DDF80CA0AF
:10571000A88910F4004F08D00AEBCA0000EB0A1069
:1057200031684900B0FBF1F807E00AEBCA0000EB72
:105730000A1031688900B0FBF1F86420B8FBF0F082
:1057400004012009642101FB1089A88910F4004F8D
:1057500008D0322000EBC900B0FBF1F000F00700E8
:10576000044308E0322000EB09106421B0FBF1F0A3
:1057700000F00F0004432C8106B0BDE8F087000064
:105780000038014010B5002448E02648005D70B1A3
:10579000254830F814004FF6F07188420BDC22489F
:1057A00030F81400401C204921F8140003E00020C8
:1057B0001D4921F814001C4830F814001B4991F8C9
:1057C0007910884228DB04EB440000EBC401174841
:1057D000163000EB4100807A00F0800080280DD068
:1057E0001048005D022809D100200F4921F814005B
:1057F0000C4908552046FBF721FC0DE00020094923
:105800000855094921F81400094921F814000949EB
:1058100009480068FDF7E6FE601CC4B2032CB4DB47
:1058200010BD00009E0400208C04002064000020B5
:1058300092040020200100202401002000B585B042
:1058400002210648FBF73CF96A4600210348FBF7B2
:10585000BEFA6846FBF7E4F805B000BD00640040FE
:1058600000BFFEE72DE9F04104460E460025002763
:1058700035460020984921F814009848005D88BBFF
:105880000020974921F8140004EB440000EBC40108
:10589000944810F8110000F08000802823D104EB18
:1058A000440000EBC4018F4800EB4100801C8C4990
:1058B00031F81410405CA84201D0BDE8F08104EB3F
:1058C000440000EBC401874810F8110000F00F00FD
:1058D000012803D102208149085507E001207F49B2
:1058E000085503E00AE002207C4908557E4800EB99
:1058F00004207B4931F814104554EBE07748005DF3
:10590000012837D1764830F81400401C744921F83A
:105910001400754800EB042031F81410455404EBD2
:10592000440000EBC4016F4800EB4100801C6C494F
:1059300031F81410405CA84209D00020674908558E
:10594000654921F81400664921F81400B5E7644858
:1059500030F81400401C04EB440101EBC40261491F
:1059600011F8121001F00F018842C6D102205B49E4
:105970000855AFE05948005D02284CD1584830F82E
:105980001400401C564921F81400574800EB04202D
:1059900031F81410455404EB440000EBC4015148A5
:1059A00000EB4100807A00F08000802824D104EBD5
:1059B000440000EBC4014B4800EB4100007BA842CF
:1059C0001AD104EB440000EBC401464800EB41004F
:1059D000807A00F00F00012813D104EB440000EBA3
:1059E000C401404800EB4100007D30B900203B4934
:1059F00008552046FBF722FB6CE004203749085588
:105A000068E0374830F81400384921F814000320C2
:105A1000324908555EE03148005D03284DD13048D9
:105A200030F81400401C2E4921F814002E4800EBD9
:105A3000042031F814104554294830F814002B493B
:105A400031F81410411A04EB440000EBC40225485D
:105A500000EB42000C30405CA84206D002201F49F7
:105A600008550020214921F814001D4830F8140081
:105A70001E4931F81410401A401C04EB440101EB9C
:105A8000C402184901EB4201897A01F00F018842F2
:105A900020D104EB440000EBC401124800EB4100AC
:105AA000007D30B900200D4908552046FBF7C6FAA5
:105AB00010E00420094908550CE00848005D022860
:105AC00008D0002005490855084921F81400044968
:105AD00021F8140000BFF0E68C0400209E04002092
